:020000040800F2
:1000000000200020A51A0008C1040008C30400084D
:1000100000000000000000000000000000000000E0
:10002000000000000000000000000000C5040008FF
:100030000000000000000000C7040008C904000818
:10004000F51A0008F51A0008F51A0008F51A000854
:10005000F51A0008F51A0008F51A0008F51A000844
:10006000F51A0008F51A0008F51A0008F51A000834
:10007000F51A0008D1040008F51A0008F51A00085E
:10008000F51A0008F51A000800000000F51A00082B
:10009000F51A0008F51A0008F51A0008F51A000804
:1000A000F51A0008F51A0008F51A0008F51A0008F4
:1000B000F51A000800000000F51A00080000000012
:1000C00003B47146490840004900095E49008E4466
:1000D00003BC7047002243088B4274D303098B4250
:1000E0005FD3030A8B4244D3030B8B4228D3030C08
:1000F0008B420DD3FF22090212BA030C8B4202D3AA
:100100001212090265D0030B8B4219D300E0090AD1
:10011000C30B8B4201D3CB03C01A5241830B8B42DA
:1001200001D38B03C01A5241430B8B4201D34B03C3
:10013000C01A5241030B8B4201D30B03C01A524128
:10014000C30A8B4201D3CB02C01A5241830A8B42AD
:1001500001D38B02C01A5241430A8B4201D34B0296
:10016000C01A5241030A8B4201D30B02C01A5241FA
:10017000CDD2C3098B4201D3CB01C01A52418309AE
:100180008B4201D38B01C01A524143098B4201D3E8
:100190004B01C01A524103098B4201D30B01C01A13
:1001A0005241C3088B4201D3CB00C01A524183088D
:1001B0008B4201D38B00C01A524143088B4201D3BA
:1001C0004B00C01A5241411A00D20146524110461A
:1001D0007047FFE701B5002000F006F802BDC046F9
:1001E0000029F7D076E770477047C0460448054BB2
:1001F00010B5834203D0044B002B00D0984710BDAC
:100200006800002068000020000000000648074940
:10021000091A8B10C90FC91810B5491003D0044B27
:10022000002B00D0984710BD680000206800002017
:100230000000000010B5074C2378002B09D1FFF710
:10024000D5FF054B002B02D0044800E000BF01237E
:10025000237010BD6800002000000000202A000864
:10026000054B10B5002B03D00449054800E000BF42
:10027000FFF7CCFF10BDC046000000006C0000205E
:10028000202A000872B6FEE700B597B030220021A0
:100290000AA801F005FD1022002106A801F000FDCA
:1002A0001422002101A801F0FBFC02230A93012281
:1002B0000D920F320E921293A0239B0314930AA85F
:1002C00000F03CFE002817D107230693053B079357
:1002D000002308930993012106A801F0A7F800283C
:1002E0000CD1012301930023039301A801F04EF9DF
:1002F000002805D117B000BDFFF7C4FFFFF7C2FF0C
:10030000FFF7C0FF70B501F003FAFFF7BDFF00F083
:1003100033F800F06DF801F049FB134800F026F9BE
:1003200080267600114D01223100280001F0D6FA16
:1003300001F0A8FB01000E4B180001F0A1FCFA240B
:10034000A400200001F0A4FB00223100280001F0ED
:10035000C5FA01F097FB0100064B180001F090FC74
:10036000200001F095FBDBE71001002000080048A9
:10037000382A0008482A0008F0B589B01422002164
:1003800003A801F08DFC184B5A69802189020A43A9
:100390005A615A690A400192019A5A6980210903F7
:1003A0000A435A615B690B400293029B80277F00DE
:1003B0000E4D00223900280001F090FA0126039624
:1003C00090235B03049300240594902003A9C005A7
:1003D00001F0C0F9039704960594069403A9280038
:1003E00001F0B8F909B0F0BD001002400008004863
:1003F00010B50C480C4B0360E1235B024360002303
:100400008360C3600361082242618361C361036248
:10041000436200F05DFD002800D110BDFFF732FF00
:10042000FBE7C046840000200038014010B588B0CA
:1004300004001422002103A801F032FC2268134BAF
:100440009A4201D008B010BD114B9A698021C901B0
:100450000A439A619A690A400192019A5A69802175
:1004600089020A435A615B690B400293029BC023D5
:10047000DB0003930223049301330693023B0793AB
:10048000902003A9C00501F065F9DBE700380140C1
:100490000010024010B514000138012807D80123CC
:1004A00092B206485B4200F032FC200010BD01F021
:1004B000FFFB0523036001204042F7E78400002092
:1004C000FEE7FEE77047704710B501F031F910BD47
:1004D00010B5024800F084F810BDC046100100209D
:1004E00082B00A4B996901221143996199690A40C6
:1004F0000092009ADA69802149050A43DA61DB69D2
:100500000B400193019B02B07047C04600100240AF
:1005100030B5036A046A0125AC4304628469EF358F
:10052000AC43120122430A24A3430B4382610362BA
:1005300030BD000030B5036A1024A3430362846910
:10054000036A054D2C4012032243A024A343090152
:1005500019438261016230BDFF0FFFFF8368702283
:1005600093430B43693A1343836070473D23C35C55
:10057000012B26D13C330222C2540268D3680121E8
:100580000B43D3600368114A93420FD08022D205F7
:1005900093420BD00E4A934208D00E4A934205D0A4
:1005A0001A6801210A431A6000200BE099680722AB
:1005B0000A40062A07D01A6801210A431A6000205F
:1005C00000E0012070470020FCE7C046002C0140FD
:1005D000000400400040014070477047704770477A
:1005E00010B50400026813699B070FD5D3689B07F9
:1005F0000CD503235B4213610433037703689B69C3
:100600009B0763D0FFF7E9FF002323772268136974
:100610005B0712D5D3685B070FD505235B421361D7
:100620000733237723689A69C0239B001A4253D06B
:100630002000FFF7D2FF00232377226813691B07EE
:1006400010D5D3681B070DD509235B4213610D3309
:1006500023772368DB699B0745D02000FFF7BDFFA8
:100660000023237722681369DB0612D5D368DB06E3
:100670000FD511235B421361193323772368DA699D
:10068000C0239B001A4235D02000FFF7A6FF0023AD
:10069000237722681369DB0702D5D368DB0730D4E0
:1006A000226813691B0602D5D3681B0630D4226862
:1006B00013695B0602D5D3685B0630D422681369E0
:1006C0009B0602D5D3689B0630D410BDFFF784FF8C
:1006D0002000FFF783FF97E72000FFF77DFF200052
:1006E000FFF77CFFA7E72000FFF776FF2000FFF76A
:1006F00075FFB5E72000FFF76FFF2000FFF76EFFE3
:10070000C5E702235B421361200001F0ADF9C7E7A2
:1007100081235B421361200000F055F9C7E74123B4
:100720005B4213612000FFF75AFFC7E721235B42BA
:100730001361200000F046F9C7E700000368214A72
:10074000904206D08022D205904202D01E4A9042AA
:1007500003D1702293434A6813431A4A904212D03D
:100760008022D20590420ED0174A90420BD0174AF1
:10077000904208D0164A904205D0164A904202D0C4
:10078000154A904203D1154A1A40CB681343802280
:1007900093434A69134303608B68C3620B688362A7
:1007A000084B984208D00A4B984205D0094B984212
:1007B00002D0094B984201D10B69036301234361C5
:1007C0007047C046002C014000040040002000405B
:1007D000004001400044014000480140FFFCFFFF91
:1007E00070B5041E26D03D23C35C002B1CD03D25D4
:1007F00002236355210001C9FFF7A0FF0123462210
:10080000A354083AA3540132A3540132A354013231
:10081000A3540132A3540132A3540132A354013230
:10082000A3546355002070BD3C330022C25401F034
:10083000FBF8DCE70120F6E730B58468034D2C4077
:100840001B0213430B432343836030BDFF00FFFFB4
:1008500010B504000B003C22825C012A00D177E035
:100860003C220121815401320131815401688A689E
:10087000384802408A60196860294FD023D840293F
:1008800057D011D8202904D00AD8002901D0102926
:1008900004D12068FFF762FE00202AE0012028E052
:1008A0003029F6D0012024E050290AD15968DA68AD
:1008B0002068FFF72DFE20685021FFF74FFE002033
:1008C00017E0012015E08022520191423CD08022A5
:1008D0009201914214D0702938D199685A68DB6826
:1008E0002068FFF7A9FF2268936877210B43936084
:1008F00000203D230122E254013B0022E25410BDBE
:1009000099685A68DB682068FFF796FF226891684B
:100910008023DB010B4393600020EAE75968DA6823
:100920002068FFF707FE20686021FFF717FE002010
:10093000DFE75968DA682068FFF7EAFD20684021A0
:10094000FFF70CFE0020D4E70020D2E70120D0E71B
:100950000220D4E78800FFFF30B53C23C35C012BA5
:1009600028D03C230122C25401330132C25403680F
:100970005C689D686E3294430A6822435A6003683B
:100980000D4A934209D08022D205934205D00B4AEA
:10099000934202D00A4A934204D1802295434A6886
:1009A0002A439A603D230122C254013B0022C254D3
:1009B000002030BD0220FCE7002C01400004004074
:1009C000004001407047704710B5EFF3108C0122D2
:1009D00082F3108801680B68124C23400B608CF383
:1009E0001088EFF3108C82F3108801688B689343B2
:1009F0008B608CF31088036E012B06D0802320229D
:100A0000C25000230366836610BDEFF3108183F3A9
:100A10001088026813683234FF34A343136081F3F3
:100A20001088EBE7DFFEFFFF10B504008368026962
:100A3000134342691343C269134301680A684E486D
:100A4000024013430B60226853684C490B40E16835
:100A50000B435360A369226A1A4321688B68484894
:100A6000034013438B602368464A934211D0464AA1
:100A700093421FD01023E06980221202904223D0BB
:100A8000042B6AD04ED8002B53D0022B48D13F48BC
:100A900053E03F4B1A6B03231340022B0CD005D8B5
:100AA000002B0BD0012B0BD10333E4E7032B09D12F
:100AB000013BE0E70023DEE70823DCE70023DAE779
:100AC0001023D8E71023D6E7042B26D007D8002B15
:100AD00009D0022B01D12D4809E0012047E0082B65
:100AE00005D0012043E000F041FD002838D040004F
:100AF00061684B08C018FFF7EDFA0200103A254B69
:100B00009A422FD882B20F239A434008083B0340F1
:100B100013432268D360002029E000F05DFCE4E785
:100B2000012024E0082B02D18020000205E00120F2
:100B30001DE000F01BFD002816D061684B08181856
:100B4000FFF7C8FA0200103A124B9A420ED82368F7
:100B50000004000CD860002009E000F03DFCEAE74A
:100B6000002004E0012002E0002000E0012000233A
:100B7000A366E36610BDC046F369FFFFFFCFFFFF2A
:100B8000FFF4FFFF003801400044004000127A00EB
:100B900000100240EFFF0000436ADB0706D5026841
:100BA00053682C490B40816A0B435360436A9B078F
:100BB00006D50268536828490B40C16A0B4353604D
:100BC000436A5B0706D50268536824490B40016BF2
:100BD0000B435360436A1B0706D5026853682049DC
:100BE0000B40416B0B435360436ADB0606D502683A
:100BF00093681C490B40816B0B439360436A9B06CF
:100C000006D50268936818490B40C16B0B4393608B
:100C1000436A5B060BD50268536814490B40016CAC
:100C20000B435360026C80235B039A420AD0436AF1
:100C30001B0606D5026853680D490B40816C0B43B7
:100C400053607047026853680A490B40416C0B437C
:100C50005360ECE7FFFFFDFFFFFFFEFFFFFFFBFF21
:100C6000FF7FFFFFFFEFFFFFFFDFFFFFFFFFEFFF54
:100C7000FFFFF7FFFFFF9FFFF8B5CE46474680B561
:100C800006000D0017009946089B98463368DC69FA
:100C90002C40641B63425C41BC422FD1434601336C
:100CA000F4D000F051FD4B46C01A40452BD84346C6
:100CB000002B2AD033681A685207E7D5DA69120781
:100CC00010D4DA691205E1D5802212011A623000CF
:100CD000FFF77AFE84232022F2500C3B0022F254CC
:100CE00003200CE008241C623000FFF76DFE842313
:100CF000F4500C3B0022F254012000E00020C0BC64
:100D0000B946B046F8BD0320F9E70320F7E7F0B590
:100D1000C64600B582B004000D0090461E00C36FA9
:100D2000202B62D1002965D0002A65D082688023FB
:100D30005B019A4204D10369002B01D1CB075DD43A
:100D400084230022E250633BE36700F0FDFC0700D0
:100D500050234246E2520233E252A26880235B01F2
:100D60009A4202D0002398461AE02369002B02D051
:100D70000023984614E0A846002511E02023E367ED
:100D8000032033E043461B882268DB05DB0D138517
:100D900002239C46E0445223E25A013A92B2E252C4
:100DA0005223E35A9BB2002B0FD000963B00002247
:100DB00080212000FFF760FF0028DFD1002DE1D067
:100DC0002A7823681A850135E5E700963B00002262
:100DD00040212000FFF750FF002802D12023E367C5
:100DE00004E02023E367032000E0022002B080BC7F
:100DF000B846F0BD0120F9E70120F7E70120F5E74B
:100E000030B583B0040084230022C25000F09CFC63
:100E1000050023681B681B070FD423681B685B074A
:100E200029D42023E3678022A3500023236663662E
:100E3000083AA354002003B030BD8021224B009318
:100E40000300002289032000FFF716FF0028E4D0EA
:100E5000EFF31081012383F3108822681368802048
:100E60008343136081F310882023E3675833002203
:100E7000E2547D38DFE78021134B00932B000022E2
:100E8000C9032000FFF7F8FE0028CAD0EFF3108056
:100E9000012282F3108821680B680C4D2B400B60F7
:100EA00080F31088EFF3108082F3108821688B683C
:100EB00093438B6080F3108880231F32E250083BFD
:100EC0000022E2540320B6E7FFFFFF01DFFEFFFF31
:100ED00010B5041E2ED0C36F002B21D02423E3674E
:100EE0002268136801218B4313602000FFF79CFDEB
:100EF000012814D0636A002B18D1226853680E4968
:100F00000B405360226893682A218B4393602268C8
:100F1000136829390B4313602000FFF771FF10BDE0
:100F200078330022C254FFF781FAD7E72000FFF799
:100F300033FEE2E70120F2E7FFB7FFFF70B582B0B2
:100F4000041E00D12EE20368DB0726D5AE4B5A689B
:100F50000C231340042B18D0AB4B5A680C231340BE
:100F6000082B0ED06368012B3CD0002B51D1A64B2F
:100F70001A68A6490A401A601A68A5490A401A6008
:100F800036E0A14B5B68DB03ECD59F4B1B689B03F2
:100F900003D56368002B00D107E223689B0772D555
:100FA000994B5B680C221A425DD0974B5A680C2310
:100FB0001340082B53D0E368002B00D185E0924A00
:100FC000136801210B43136000F0BEFB05008E4B3C
:100FD0001B689B0770D400F0B7FB401B0228F6D9B2
:100FE0000320E0E1884A116880235B020B43136011
:100FF0006368002B25D000F0A7FB0500824B1B681F
:101000009B03CAD400F0A0FB401B6428F6D9032040
:10101000C9E1052B09D07C4B1A687C490A401A604B
:101020001A687B490A401A60E2E7774B1968802208
:10103000D2020A431A601968802252020A431A60D7
:10104000D6E700F081FB05006F4B1B689B03A4D51E
:1010500000F07AFB401B6428F6D90320A3E16A4B19
:101060005B68DB03A7D4684B1B689B0703D5E36869
:10107000012B00D09BE164490B68F822934322695D
:10108000D20013430B6023681B0744D5E369002B90
:101090002ED05D4A536A01210B43536200F054FB8A
:1010A0000500594B5B6A9B0735D400F04DFB401B94
:1010B0000228F6D9032076E153490B68F8229343BE
:1010C0002269D20013430B60DDE74F4A1368012108
:1010D0008B43136000F038FB05004B4B1B689B07EC
:1010E000D1D500F031FB401B0228F6D903205AE18C
:1010F000454A536A01218B43536200F025FB0500EA
:10110000414B5B6A9B0706D500F01EFB401B022883
:10111000F6D9032047E123685B0700D480E03A4B0F
:10112000DB69DB001DD4384BDA69802149050A43AD
:10113000DA61DB690B400193019B0125354B1B688C
:10114000DB0510D5A368012B21D0002B36D12E4B07
:101150001A6A01218A431A621A6A03318A431A629F
:101160001AE00025EAE72B4A116880235B000B4355
:10117000136000F0E9FA0600264B1B68DB05E1D49A
:1011800000F0E2FA801B6428F6D903200BE11E4A26
:10119000136A01210B431362A368002B24D000F0D3
:1011A000D3FA0600184B1B6A9B0737D400F0CCFA21
:1011B000801B194B9842F5D90320F4E0052B09D088
:1011C000114B1A6A01218A431A621A6A03318A434F
:1011D0001A62E1E70C4B1A6A04210A431A621A6A7E
:1011E00003390A431A62D7E700F0AEFA0600064B4D
:1011F0001B6A9B0712D500F0A7FA801B064B98428A
:10120000F5D90320CFE0C04600100240FFFFFEFFEB
:10121000FFFFFBFF0070004088130000012D33D05A
:101220002368DB0610D56369012B33D0053351D118
:10123000654A536B04218B435363536BF4318B43E7
:10124000A169C9000B435363236A002B00D1B0E0AE
:101250005D4A51680C220A40082A00D18AE0022B1C
:101260004FD0594A136859490B40136000F06CFA8B
:101270000400554B1B689B017AD500F065FA001BF2
:101280000228F6D903208EE04F4AD36950490B401B
:10129000D361C5E74C4B5A6B04210A435A635A6B1E
:1012A00003390A435A6300F04FFA0500464B5B6B63
:1012B0009B0706D400F048FA401B0228F6D9032009
:1012C00071E041494B6BF8229343A269D20013436A
:1012D0004B63B9E73C4B5A6B04210A435A635A6B80
:1012E00003398A435A6300F02FFA0500364B5B6BD3
:1012F0009B07A9D500F028FA401B0228F6D9032045
:1013000051E0314A136831490B40136000F01CFA78
:1013100005002D4B1B689B0106D500F015FA401BFC
:101320000228F6D903203EE0274BDA6A0F218A43D0
:10133000E16A0A43DA625A6826490A40A16A606A89
:1013400001430A435A601968802252040A431A6012
:1013500000F0FAF904001C4B1B689B0106D400F056
:10136000F3F9001B0228F6D903201CE000201AE044
:10137000002018E0012B1ED0134B5A68D86A802336
:101380005B021340616A8B4217D10F230340E16A6D
:101390008B4214D1F0239B031A40A36A9A4210D1C6
:1013A000002000E0012002B070BD0120FBE7012019
:1013B000F9E70020F7E70120F5E70120F3E7012036
:1013C000F1E70120EFE7C04600100240FFFFFFFEFB
:1013D000FFFFFFEFFFFFC2FF10B5104B5A680C2351
:1013E0001340082B01D00E4810BD910C0733194053
:1013F0000C48445C0949C96A0B400B49C95CD203DB
:1014000004D50748FEF766FE6043EDE76201121B54
:1014100093019B1ADB001B191802E5E7001002403C
:1014200000127A00682A0008582A000870B50400E3
:101430000D00002800D17EE0434B1A6801231340C1
:101440008B420AD240490B68012293432B430B6025
:101450000B681A40AA4200D06FE023689A070ED5A5
:101460005B0705D5394A5168E023DB000B43536025
:10147000364A5368F0218B43A1680B4353602368BD
:10148000DB072DD56368012B1ED0022B22D02F4AFB
:101490001268920753D52D494A68032082431343AB
:1014A0004B6000F051F90600284B5B680C221A4093
:1014B00063689B009A4213D000F046F9801B244BCE
:1014C0009842F1D9032035E0204A12689203E2D411
:1014D00001202FE01D4A12689201DCD4012029E08E
:1014E000194B1A6801231340AB4209D916490B68FE
:1014F000012293432B430B600B681A40AA4220D170
:1015000023685B0706D5114A536812490B40E1680E
:101510000B435360FFF760FF0C4B5A6812090F230F
:1015200013400D4AD35CD8400C4B1860002000F0EB
:10153000C7F8002070BD0120FCE70120FAE7012078
:10154000F8E70120F6E7C046002002400010024004
:1015500088130000FFF8FFFF802A00080800002021
:10156000014B18687047C0460800002010B5FFF70F
:10157000F7FF044B5A68120A07231340024AD35C50
:10158000D84010BD00100240782A000870B582B023
:1015900004000368DB0339D5434BDB69DB0055D41A
:1015A000414BDA69802149050A43DA61DB690B4066
:1015B0000193019B01253D4B1B68DB0548D53A4B48
:1015C0001A6AC0239B00110019401A4215D06368A3
:1015D000C022920013408B420FD0334B1A6A344919
:1015E00011401E6A8020400230431862186A314E52
:1015F000304018621962D2073ED42B4A136A2C4934
:101600000B4061680B431362012D44D02368DB0754
:1016100006D5254A136B03218B43A1680B43136343
:1016200023689B0606D5204A136B10218B43E16883
:101630000B43136323685B0532D51B4A136B4021B0
:101640008B4321690B43136300202AE00025B2E796
:10165000164A116880235B000B43136000F074F896
:101660000600124B1B68DB05A9D400F06DF8801B47
:101670006428F6D9032014E000F066F806000A4B4F
:101680001B6A9B07B9D400F05FF8801B0A4B984295
:10169000F5D9032005E0D36908490B40D361B5E7CC
:1016A000002002B070BDC046001002400070004033
:1016B000FFFCFFFFFFFFFEFF88130000FFFFFFEFAF
:1016C00010B504000F4B1978FA208000FEF702FDD8
:1016D00001000D4B1868FEF7FDFC00F061F90028D1
:1016E0000DD1032C01D901200AE001300022210094
:1016F000404200F045F9054B1C60002000E001204D
:1017000010BDC0460000002008000020040000209A
:1017100010B5064A136810210B4313600020FFF731
:10172000CFFFFEF7DDFE002010BDC04600200240C6
:10173000034A1168034B1B785B1813607047C0465F
:101740000C01002000000020014B18687047C046C3
:101750000C010020F0B583B0002356E086685F00DE
:101760000324BC40A643CC68BC4034438460446836
:1017700094434E683609012232409A402243426027
:1017800053E0DE080836B600375805321A4092009A
:101790000F249440A7430C69944022003A433250EE
:1017A00056E0032600E00026A64034003C43023207
:1017B0009200444E9451444A9768EA433E00AE4337
:1017C0004C68E40201D53E002E433F4CA660E7681A
:1017D0003E0016404C68A40201D53E002E433A4C10
:1017E000E66067683E0016404C68A40301D53E00E1
:1017F0002E43354C6660266832404C68E40301D5C0
:101800002A003243304C226001330C682200DA4057
:1018100056D001229A40250015401442F4D04E685B
:1018200003243440013C012C98D94C680322224007
:10183000032A08D0C4685E000322B24094438A6839
:10184000B2402243C2604C6803222240022A98D050
:1018500004685E0003221700B740BC434F683A405B
:10186000B240224302604C68C02292021442CBD0A4
:10187000164CA66901221643A661A4692240019272
:10188000019A9A08941CA4000E4EA75903241C40E8
:10189000A4000F26A640B7439026F605B04282D09A
:1018A0000B4EB04208D00B4EB04207D00A4EB042A9
:1018B00000D176E7052677E7012675E7022673E76C
:1018C00003B0F0BD000001400004014000100240E0
:1018D0000004004800080048000C0048002A01D01D
:1018E000816170478162FCE770B5002811DB8308D5
:1018F000134DC0339B005C5903221040C000FC32E2
:1019000016008640B44389010A40824022435A515E
:1019100070BD0F230340083B9B0806339B00094A18
:10192000944663445C6803221040C000FC321500FA
:101930008540AC4389010A40824022435A60E7E770
:1019400000E100E000ED00E0013880235B049842F4
:101950000FD2094A50600948036A1B021B0AC021C2
:1019600009060B43036200239360073313600020D2
:1019700070470120FCE7C04610E000E000ED00E009
:1019800010B5FFF7B1FF10BD002805DB1F22024094
:1019900001239340014A13607047C04600E100E014
:1019A00010B5FFF7D1FF10BD7047000000B587B03C
:1019B0001022002102A800F073F9082200216846D5
:1019C00000F06EF91548164B0360002343608360F6
:1019D000144AC260036143618361FEF701FF00287E
:1019E00013D180235B0102930C4802A9FEF730FF5C
:1019F00000280DD100230093019308486946FEF7A3
:101A0000ABFF002807D107B000BDFEF73BFCE8E7BD
:101A1000FEF738FCEEE7FEF735FCF4E71001002096
:101A2000002C0140FFFF000000B583B002680C4BA2
:101A30009A4201D003B000BD0A4B9A698021090186
:101A40000A439A619B690B400193019B002200218C
:101A50000D20FFF795FF0D20FFF796FFEAE7C04640
:101A6000002C0140001002400268044B9A4200D052
:101A70007047034A136801331360F9E7002C0140F3
:101A800058010020014B18687047C04658010020DB
:101A9000034B1B681818024B1B688342FBD370472B
:101AA000580100200D488546FFF77EFF0C480D4980
:101AB0000D4A002302E0D458C4500433C4188C42A9
:101AC000F9D30A4A0A4C002301E013600432A2420F
:101AD000FBD300F0F3F8FEF715FCFEE70020002032
:101AE0000000002068000020CC2A000868000020C8
:101AF000AC020020FEE70000002310B504000360E4
:101B00004360836081814366C28103614361836175
:101B1000190008225C3000F0C3F80B4B24626362AA
:101B20000A4BA3620A4BE3620A4B23630A4B9C42B3
:101B300005D00A4B9C4202D0094B9C4203D12000A5
:101B4000583000F0DFF810BD512500087925000855
:101B5000B1250008DD2500085C010020C40100203B
:101B60002C02002010B5034A0349044800F06CF829
:101B700010BDC0460C000020D92400081C00002025
:101B800041680B4B10B50400994201D000F0A4FC51
:101B9000A168084B994202D0200000F09DFCE1684A
:101BA000054B994202D0200000F096FC10BDC046C3
:101BB0005C010020C40100202C02002010B5094B5C
:101BC000094A04211A6009480022FFF795FF012203
:101BD00009210748FFF790FF022212210548FFF76D
:101BE0008BFF10BD94020020651B00085C010020E3
:101BF000C40100202C02002010B5024800F083F838
:101C000010BDC0469902002010B5024800F07CF8D3
:101C100010BDC0469902002010B50400FFF7ECFF8C
:101C2000236A002B02D0FFF7EFFF10BD044B2362A5
:101C3000044B1B68002BF6D1FFF7C0FFF3E7C0464B
:101C4000811B000894020020F7B5140000260090C4
:101C50000191A5686768013F04D52468002CF8D17C
:101C60003000FEBDAB89012B08D90E22AB5E0133DB
:101C700004D029000098019B984706436835EAE79D
:101C80000FB407B5054904AB086804CB816801931C
:101C900000F062F803B008BC04B018471800002038
:101CA00003008218934200D1704719700133F9E79D
:101CB000014B18687047C0461800002070B5002618
:101CC0000C4C0D4D641BA410A64209D1002600F057
:101CD000A7FE0A4C0A4D641BA410A64205D170BD94
:101CE000B300EB5898470136EEE7B300EB5898473E
:101CF0000136F2E7C42A0008C42A0008C82A0008EE
:101D0000C42A0008704770477047936810B5013BBC
:101D10009360002B04DA9469A34207DB0A2905D0FB
:101D20001368581C10601970080010BD00F05CFCAE
:101D30000100F9E7F8B506000F001400D518AC4211
:101D400001D1002007E021783A003000FFF7DDFFE5
:101D50000134431CF3D1F8BDF0B5A1B00F0015005C
:101D60001E000390002804D0036A002B01D1FFF766
:101D700053FF7B6EDB0705D4BB899B0502D4B86D8E
:101D8000FFF7C1FFBB891B0702D53B69002B13D1AD
:101D90003900039800F06AFC00280DD07B6EDB0749
:101DA00003D50120404221B0F0BDBB899B05F8D48A
:101DB000B86DFFF7A9FFF4E7002308AC6361203397
:101DC00063761033A37607962E003378002B01D06C
:101DD000252B48D1731B0593AE420BD02A00390046
:101DE0000398FFF7A7FF013000D1AEE06369059AC1
:101DF0009B1863613378002B00D1A6E001220023F9
:101E00005242626004A954325218751C2360E36088
:101E1000A3601370A365594B052218002978059318
:101E200000F072FD6E1C00281FD12268D30604D575
:101E3000532304A95B1820211970130704D55323D9
:101E400004A95B182B2119702B782A2B16D02E0091
:101E500000210A20E3683278751C303A092A50D9EB
:101E6000002911D117E00136AFE7059B2268C01A9F
:101E700001238340134335002360CCE7079B191DE2
:101E80001B680791002B01DB0B9304E05B42E360CE
:101E900002231343236033782E2B0CD173782A2B23
:101EA00034D1079B02361A1D1B680792002B01DAFA
:101EB00001235B420993324D03222800317800F060
:101EC00023FD002806D04023401B834022680136B2
:101ED00013432360317806222A48751C217600F0CE
:101EE00013FD002840D0284B002B22D10722079B4E
:101EF00007339343083307936369049A9B1863611C
:101F000062E743432E0001219B18A4E700230A2027
:101F10001900013663603278751C303A092A03D9FA
:101F2000002BC8D00991C6E741432E000123891830
:101F3000F1E707AA009221003A00144B039800E051
:101F400000BF0490049B0133D6D17B6EDB0705D420
:101F5000BB899B0502D4B86DFFF7D6FEBB895B0633
:101F600000D51EE70D981EE707AA009221003A004F
:101F7000064B039800F01EF9E3E7C046902A0008DC
:101F8000962A00089A2A000800000000351D000863
:101F900070B50F4E0D0031680400002902D100F029
:101FA0008DFC30602900200000F088FC431C03D128
:101FB00001256D42280070BD0323C51C9D43A84226
:101FC000F8D0291A200000F079FC0130F2D1EFE7B7
:101FD0009C020020F7B50322CB1C93430833050075
:101FE0001F000C2B34D20C27B94233D8280000F044
:101FF0009FFA374E33681C00002C2FD1390028007F
:10200000FFF7C6FF0400431C5FD134680094009BB7
:10201000002B4AD1002C52D023682800E3180099E5
:10202000019300F04BFC019B834248D123682800B8
:10203000FF1A3900FFF7ACFF013040D02368DB19ED
:10204000236033685A68002A33D1009B336019E05B
:10205000002BC9DA0C232B600020FEBD2168C91BB0
:1020600020D40B290AD9E2192760A34204D1326097
:1020700063681160536005E05A60F9E76268A34243
:102080000ED13260280000F05BFA200007220B30EE
:10209000231D9043C21A9842DFD01B1AA350DCE7DD
:1020A0005A60EFE723006468A6E7009C636800932A
:1020B000ADE71A005B68A342FBD10023DAE70C23EB
:1020C00028002B6000F03CFAC6E70760DAE7C0465C
:1020D000A0020020F7B5160001938A680B690C0076
:1020E0000090934200DA13002200336043321278EA
:1020F000002A01D00133336023689B0602D5336880
:10210000023333602268062315001D401A4227D08F
:10211000230043331B785A1E93412268920630D421
:10212000220001990098089D4332A847013025D02C
:102130000622236800251340042B05D13368E56887
:10214000ED1AEB43DB171D40A3682269934201DDC2
:102150009B1AED180026B54220D1002010E0013571
:10216000E36832689B1AAB42D2DD22000123019959
:102170000098089F1932B8470130F0D10120404241
:10218000FEBD3020E1184331087021005A1C453152
:102190000978A218433202331170C1E722000123EB
:1021A00001990098089F1A32B8470130E6D00136ED
:1021B000D1E70000F0B58BB006920A0043320793D6
:1021C000059003920A7E0C00109B782A09D8622A97
:1021D0000BD8002A00D1BAE07A490491582A00D1DC
:1021E0008EE0250042352A7022E010006338152861
:1021F000F7D8FDF765FF16001F00F6FFF6FFF6FFA4
:10220000F6FF1F00F6FFF6FFF6FFF6FF9F00360011
:102210007E00F6FFF6FFB000F6FF3600F6FFF6FF91
:10222000820025001A684235111D196013682B7051
:1022300001239EE018680968021D0D060BD506688B
:102240001A60002E03DA2D23039A764213705D4B39
:102250000A27049318E006681A604906F1D536B2D9
:10226000EFE70868196840C9050602D4400600D5A2
:10227000B6B21960534B0A2704936F2A00D1023F6C
:102280002300002243331A706368A360002B06DB2F
:1022900004212268039D8A43226033430CD0039DAE
:1022A00030003900FDF79CFF049B013D5B5C2B7007
:1022B000330006009F42F3D9082F09D12368DB07BA
:1022C00006D5626823699A4202DC3023013D2B70F7
:1022D000039B5B1B2361079B210000930598069BD2
:1022E00009AAFFF7F7FE013048D1012040420BB0A8
:1022F000F0BD202209680A43226078223249049105
:10230000210045310A701968226840C9100602D4BC
:10231000500600D5B6B21960D30702D52023134367
:102320002360002E01D01027AAE7202223689343C0
:102330002360F8E71A680D68101D49691860136872
:102340002E0601D5196002E06D06FBD51980002329
:10235000039D2361BFE71A68111D196015680021EC
:102360002800626800F0D0FA002801D0401B6060AD
:10237000636823610023039A1370ACE72A00236982
:1023800006990598079DA8470130AED023689B07A2
:1023900015D4099BE0689842A9DA1800A7E7220043
:1023A000012306990598079E1932B04701309CD049
:1023B0000135E368099A9B1AAB42F0DCE9E7002596
:1023C000F7E7C046A12A0008B22A0008F7B50C2298
:1023D0008B5E05000C001A0756D44A68002A02DCFE
:1023E0000A6C002A4EDDE76A002F4BD000228020C5
:1023F0002E682A601A004001216A0240034233D04D
:10240000626DA3895B0706D56368D21A636B002BE4
:1024100001D0236CD21A00232800E76A216AB8474A
:10242000A289431C06D129681D2946D8294BCB40D7
:10243000DB0742D50023636023692360D20405D5FE
:10244000431C02D12B68002B00D16065616B2E60AC
:10245000002917D023004433994202D0280000F00D
:102460005FFA002363630DE001232800B8470200F0
:10247000431CC6D12B68002BC3D01D2B01D0162BBB
:102480001AD12E6000201EE00E69002EFAD00F68CF
:102490000E60BA1B019200229B0700D14A69A2601C
:1024A000019B002BEEDDA36A32001F002800019B78
:1024B000216AB847002807DCA28940230120134382
:1024C0001BB2A3814042FEBD019B36181B1A01932B
:1024D000E6E7C046010040200B6970B505000C001E
:1024E000002B02D10025280070BD002804D0036A0B
:1024F000002B01D1FFF790FB0C22A35E002BF1D043
:10250000626ED20704D49B0502D4A06DFFF7FBFBDB
:1025100028002100FFF75AFF636E0500DB07E2D4B5
:10252000A3899B05DFD4A06DFFF7EEFBDBE700007E
:1025300010B50248FFF7E7FB10BDC0469802002027
:1025400010B50248FFF7E0FB10BDC046980200201E
:1025500070B50C000E25495F00F09CF9002803DBE4
:10256000636D1B18636570BDA389024A1340A38184
:10257000F9E7C046FFEFFFFFF8B51F008B890500A4
:102580000C001600DB0505D50E23C95E00220223D0
:1025900000F06CF9A389054A28001340A38132009A
:1025A0000E23E15E3B0000F09BF9F8BDFFEFFFFF5B
:1025B00070B50C000E25495F00F058F9A389421C44
:1025C00003D1054A1340A38170BD802252011343F9
:1025D000A3816065F8E7C046FFEFFFFF10B50E234B
:1025E000C95E00F00DF910BDF8B506000D0014002D
:1025F000002804D0036A002B01D1FFF70DFBA3696B
:10260000A360A3891B0702D52369002B09D12100F0
:10261000300000F02BF8002803D001256D4228007F
:10262000F8BD23692068EFB2C01A6369EDB2834236
:1026300005DC21003000FFF74FFF0028EDD1A36833
:102640000130013BA36023685A1C22601F7063693C
:10265000834204D0A389DB07E1D50A2DDFD1210015
:102660003000FFF739FF0028D9D0D6E72D4B70B5E1
:10267000050018680C00002804D0036A002B01D163
:10268000FFF7CAFA0C22A35E1A0723D4DA0607D48E
:1026900009222A60402201201343A38140423AE0EC
:1026A0005B0713D5616B002908D02300443399429E
:1026B00002D0280000F034F9002363632422A389A8
:1026C0009343A38100236360236923600823A289C5
:1026D0001343A3812369002B0BD1A0218022A3895E
:1026E000890092000B40934203D02100280000F0A3
:1026F00045F80C22A35E01211A000A400B420BD0C0
:102700000022A26062695242A261002022698242D4
:1027100001D11A06BED470BD990700D46269A260C7
:10272000F3E7C0461800002070B50E001D000E2310
:10273000C95E140096B000290CDAB289802311001A
:1027400019401A4214D18023DB0000202960236045
:1027500016B070BD6A4600F065F80028EDDBF02386
:1027600001991B021940044BC9184B425941EAE731
:1027700000214023E9E7C04600E0FFFFF0B5022654
:102780008B8905000C0085B0334207D02300473306
:10279000236023610123636105B0F0BD03AB02AA8E
:1027A000FFF7C2FF029F019039002800FFF712FCDB
:1027B000002808D10C22A35E9A05EDD4032293438E
:1027C0001E43A681E2E78023A28920601343A381F0
:1027D000039B20616761002B0CD028000E23E15E73
:1027E00000F032F8002805D00323A2899A43023B67
:1027F0001343A381A389019A1343A381CCE700006B
:10280000002370B5064D040008002B6000F0D2F8DC
:10281000431C03D12B68002B00D0236070BDC04641
:10282000A4020020002370B5064D0400080011002A
:102830002B6000F0C7F8431C03D12B68002B00D09D
:10284000236070BDA4020020002370B5064D040073
:1028500008002B6000F0BEF8431C03D12B68002B4E
:1028600000D0236070BDC046A402002070B50400F3
:10287000080011001A000023054D2B6000F0B2F88B
:10288000431C03D12B68002B00D0236070BDC046D1
:10289000A402002070B50400080011001A000023F3
:1028A000054D2B6000F0A6F8431C03D12B68002BCC
:1028B00000D0236070BDC046A4020020002370B584
:1028C000064D040008002B6000F09CF8431C03D167
:1028D0002B68002B00D0236070BDC046A4020020EE
:1028E00070B50400080011001A000023054D2B608C
:1028F000FDF7D0FD431C03D12B68002B00D02360D3
:1029000070BDC046A4020020C9B28218904201D115
:102910000020704703788B42FBD00130F6E70000BF
:1029200070B505000C1E10D0043C2368002B00DAA3
:10293000E4182800FFF7FCFD1D4A1368002B05D1A1
:10294000636014602800FFF7FBFD70BDA34208D947
:10295000206821188B42F3D119685B68091821603F
:10296000EEE71A005B68002B01D0A342F9D9116889
:102970005018A0420BD120680918501811608342EA
:10298000E0D118685B68411811605360DAE7A04233
:1029900002D90C232B60D5E7206821188B4203D184
:1029A00019685B680918216063605460CAE7C04613
:1029B000A002002058220120014B40421A607047BB
:1029C000A402002058220120014B40421A607047A7
:1029D000A40200205822024B00201A607047C04613
:1029E000A402002058220120014B40421A60704787
:1029F000A402002058220120014B40421A60704777
:102A0000A4020020044A03001068002802D0C31862
:102A1000136070470148FAE7A8020020B0020020C6
:102A2000F8B5C046F8BC08BC9E467047F8B5C0462D
:082A3000F8BC08BC9E4670478B
:102A38005B256C645D204C4544204F4E0D0A000018
:102A48005B256C645D204C4544204F46460D0A00CA
:102A58000102030405060708090A0B0C0D0E0F10E6
:102A680002030405060708090A0B0C0D0E0F1010C7
:102A78000000000001020304000000000000000044
:102A88000102030406070809232D302B2000686C77
:102A98004C00656667454647003031323334353679
:102AA80037383941424344454600303132333435B2
:0C2AB800363738396162636465660000DF
:042AC40061020008A3
:042AC80035020008CB
:102ACC00010000000400000000127A000000000069
:102ADC00030000005C0100201C000020000000002E
:102AEC005C010020C40100202C020020000000002A
:102AFC0000000000000000000000000000000000CA
:102B0C0000000000000000000000000000000000B9
:102B1C0000000000000000000000000000000000A9
:082B2C000000000000000000A1
:0400000508001AA530
:00000001FF
