:020000040800F2
:1000000000200020C1140008910400089304000897
:1000100000000000000000000000000000000000E0
:10002000000000000000000000000000950400082F
:100030000000000000000000970400089904000878
:1000400011150008111500081115000811150008F8
:1000500011150008111500081115000811150008E8
:1000600011150008111500081115000811150008D8
:1000700011150008111500081115000811150008C8
:1000800011150008111500080000000011150008E6
:1000900011150008111500081115000811150008A8
:1000A0001115000811150008111500081115000898
:1000B00011150008000000001115000800000000E4
:1000C000002243088B4274D303098B425FD3030A97
:1000D0008B4244D3030B8B4228D3030C8B420DD3AA
:1000E000FF22090212BA030C8B4202D31212090238
:1000F00065D0030B8B4219D300E0090AC30B8B4276
:1001000001D3CB03C01A5241830B8B4201D38B0323
:10011000C01A5241430B8B4201D34B03C01A5241C8
:10012000030B8B4201D30B03C01A5241C30A8B420B
:1001300001D3CB02C01A5241830A8B4201D38B02F6
:10014000C01A5241430A8B4201D34B02C01A52419A
:10015000030A8B4201D30B02C01A5241CDD2C3090C
:100160008B4201D3CB01C01A524183098B4201D388
:100170008B01C01A524143098B4201D34B01C01A73
:10018000524103098B4201D30B01C01A5241C308EB
:100190008B4201D3CB00C01A524183088B4201D35A
:1001A0008B00C01A524143088B4201D34B00C01A46
:1001B0005241411A00D20146524110467047FFE7B2
:1001C00001B5002000F006F802BDC0460029F7D0B6
:1001D00076E770477047C0460448054B10B5834228
:1001E00003D0044B002B00D0984710BD68000020BE
:1001F000680000200000000006480749091A8B101B
:10020000C90FC91810B5491003D0044B002B00D0FA
:10021000984710BD68000020680000200000000022
:1002200010B5074C2378002B09D1FFF7D5FF054BFC
:10023000002B02D0044800E000BF0123237010BD52
:100240006800002000000000481F0008054B10B5A2
:10025000002B03D00449054800E000BFFFF7CCFFA6
:1002600010BDC046000000006C000020481F0008C0
:1002700072B6FEE700B597B0302200210AA801F05F
:100280006DFA1022002106A801F068FA142200215C
:1002900001A801F063FA02230A9301220D920F32A2
:1002A0000E921293A0239B0314930AA800F0CAFB9A
:1002B000002817D107230693053B079300230893D3
:1002C0000993012106A800F035FE00280CD1012376
:1002D00001930023039301A800F0DCFE002805D160
:1002E00017B000BDFFF7C4FFFFF7C2FFFFF7C0FF65
:1002F00070B500F091FFFFF7BDFF00F025F800F0AA
:100300005FF80E4801F020FA802676000C4D01229D
:100310003100280001F078F8FA24A400200000F051
:100320009DFF084801F010FA00223100280001F07A
:100330006BF8200000F092FFE3E7C046601F000862
:1003400000080048681F0008F0B589B01422002199
:1003500003A801F003FA184B5A69802189020A4365
:100360005A615A690A400192019A5A698021090327
:100370000A435A615B690B400293029B80277F000E
:100380000E4D00223900280001F03EF801260396A8
:1003900090235B03049300240594902003A9C005D7
:1003A00000F06EFF039704960594069403A92800B5
:1003B00000F066FF09B0F0BD0010024000080048E0
:1003C00010B50C480C4B0360E1235B024360002333
:1003D0008360C3600361082242618361C361036279
:1003E000436200F0F9FA002800D110BDFFF740FF8A
:1003F000FBE7C046840000200038014010B588B0FB
:1004000004001422002103A801F0A8F92268134B6C
:100410009A4201D008B010BD114B9A698021C901E0
:100420000A439A619A690A400192019A5A698021A5
:1004300089020A435A615B690B400293029BC02305
:10044000DB0003930223049301330693023B0793DB
:10045000902003A9C00500F013FFDBE7003801403E
:100460000010024010B514000138012807D80123FC
:1004700092B206485B4200F0CEF9200010BD01F0B8
:1004800075F90523036001204042F7E7840000204E
:10049000FEE7FEE77047704710B500F0CDFE10BDD7
:1004A00082B00A4B996901221143996199690A4006
:1004B0000092009ADA69802149050A43DA61DB6912
:1004C0000B400193019B02B07047C04600100240F0
:1004D00010B5EFF3108C012282F3108801680B68CD
:1004E000124C23400B608CF31088EFF3108C82F3D6
:1004F000108801688B6893438B608CF31088036EBF
:10050000012B06D080232022C2500023036683667D
:1005100010BDEFF3108183F3108802681368323442
:10052000FF34A343136081F31088EBE7DFFEFFFF86
:1005300010B5040083680269134342691343C2691A
:10054000134301680A684E48024013430B60226857
:1005500053684C490B40E1680B435360A369226A1E
:100560001A4321688B684848034013438B60236813
:10057000464A934211D0464A93421FD01023E06965
:1005800080221202904223D0042B6AD04ED8002B36
:1005900053D0022B48D13F4853E03F4B1A6B032303
:1005A0001340022B0CD005D8002B0BD0012B0BD104
:1005B0000333E4E7032B09D1013BE0E70023DEE747
:1005C0000823DCE70023DAE71023D8E71023D6E777
:1005D000042B26D007D8002B09D0022B01D12D489F
:1005E00009E0012047E0082B05D0012043E000F09E
:1005F00041FD002838D0400061684B08C018FFF763
:100600005FFD0200103A254B9A422FD882B20F2389
:100610009A434008083B034013432268D3600020FC
:1006200029E000F05DFCE4E7012024E0082B02D182
:100630008020000205E001201DE000F01BFD0028E5
:1006400016D061684B081818FFF73AFD0200103AFF
:10065000124B9A420ED823680004000CD860002088
:1006600009E000F03DFCEAE7002004E0012002E0A0
:10067000002000E001200023A366E36610BDC04611
:10068000F369FFFFFFCFFFFFFFF4FFFF00380140DA
:100690000044004000127A0000100240EFFF00000A
:1006A000436ADB0706D5026853682C490B40816A10
:1006B0000B435360436A9B0706D502685368284979
:1006C0000B40C16A0B435360436A5B0706D502685F
:1006D000536824490B40016B0B435360436A1B076B
:1006E00006D50268536820490B40416B0B435360A9
:1006F000436ADB0606D5026893681C490B40816B90
:100700000B439360436A9B0606D5026893681849B9
:100710000B40C16B0B439360436A5B060BD50268C9
:10072000536814490B40016C0B435360026C8023E7
:100730005B039A420AD0436A1B0606D502685368D7
:100740000D490B40816C0B4353607047026853683E
:100750000A490B40416C0B435360ECE7FFFFFDFF80
:10076000FFFFFEFFFFFFFBFFFF7FFFFFFFEFFFFF2E
:10077000FFDFFFFFFFFFEFFFFFFFF7FFFFFF9FFF21
:10078000F8B5CE46474680B506000D0017009946DD
:10079000089B98463368DC692C40641B63425C41CB
:1007A000BC422FD143460133F4D000F051FD4B46FB
:1007B000C01A40452BD84346002B2AD033681A680C
:1007C0005207E7D5DA69120710D4DA691205E1D5C4
:1007D000802212011A623000FFF77AFE8423202261
:1007E000F2500C3B0022F25403200CE008241C625F
:1007F0003000FFF76DFE8423F4500C3B0022F254CE
:10080000012000E00020C0BCB946B046F8BD03207E
:10081000F9E70320F7E7F0B5C64600B582B004005B
:100820000D0090461E00C36F202B62D1002965D0B9
:10083000002A65D0826880235B019A4204D1036953
:10084000002B01D1CB075DD484230022E250633B0F
:10085000E36700F0FDFC070050234246E2520233FA
:10086000E252A26880235B019A4202D0002398469C
:100870001AE02369002B02D00023984614E0A84612
:10088000002511E02023E367032033E043461B8863
:100890002268DB05DB0D138502239C46E0445223CE
:1008A000E25A013A92B2E2525223E35A9BB2002B2F
:1008B0000FD000963B00002280212000FFF760FF50
:1008C0000028DFD1002DE1D02A7823681A85013570
:1008D000E5E700963B00002240212000FFF750FF93
:1008E000002802D12023E36704E02023E3670320EC
:1008F00000E0022002B080BCB846F0BD0120F9E75C
:100900000120F7E70120F5E730B583B00400842328
:100910000022C25000F09CFC050023681B681B07E6
:100920000FD423681B685B0729D42023E367802248
:10093000A350002323666366083AA354002003B043
:1009400030BD8021224B0093030000228903200048
:10095000FFF716FF0028E4D0EFF31081012383F3A3
:1009600010882268136880208343136081F3108805
:100970002023E36758330022E2547D38DFE78021EB
:10098000134B00932B000022C9032000FFF7F8FE51
:100990000028CAD0EFF31080012282F3108821686A
:1009A0000B680C4D2B400B6080F31088EFF3108028
:1009B00082F3108821688B6893438B6080F31088E2
:1009C00080231F32E250083B0022E2540320B6E7A6
:1009D000FFFFFF01DFFEFFFF10B5041E2ED0C36F27
:1009E000002B21D02423E3672268136801218B4365
:1009F00013602000FFF79CFD012814D0636A002BD0
:100A000018D1226853680E490B40536022689368DE
:100A10002A218B4393602268136829390B431360A2
:100A20002000FFF771FF10BD78330022C254FFF79A
:100A3000E5FCD7E72000FFF733FEE2E70120F2E70D
:100A4000FFB7FFFF70B582B0041E00D12EE203682D
:100A5000DB0726D5AE4B5A680C231340042B18D065
:100A6000AB4B5A680C231340082B0ED06368012B44
:100A70003CD0002B51D1A64B1A68A6490A401A60F7
:100A80001A68A5490A401A6036E0A14B5B68DB038F
:100A9000ECD59F4B1B689B0303D56368002B00D1EB
:100AA00007E223689B0772D5994B5B680C221A42B8
:100AB0005DD0974B5A680C231340082B53D0E36842
:100AC000002B00D185E0924A136801210B4313608B
:100AD00000F0BEFB05008E4B1B689B0770D400F036
:100AE000B7FB401B0228F6D90320E0E1884A1168D1
:100AF00080235B020B4313606368002B25D000F05A
:100B0000A7FB0500824B1B689B03CAD400F0A0FB27
:100B1000401B6428F6D90320C9E1052B09D07C4B82
:100B20001A687C490A401A601A687B490A401A60B0
:100B3000E2E7774B19688022D2020A431A601968EB
:100B4000802252020A431A60D6E700F081FB0500BA
:100B50006F4B1B689B03A4D500F07AFB401B6428F5
:100B6000F6D90320A3E16A4B5B68DB03A7D4684B8B
:100B70001B689B0703D5E368012B00D09BE1644908
:100B80000B68F82293432269D20013430B60236859
:100B90001B0744D5E369002B2ED05D4A536A01211F
:100BA0000B43536200F054FB0500594B5B6A9B07F3
:100BB00035D400F04DFB401B0228F6D9032076E126
:100BC00053490B68F82293432269D20013430B6008
:100BD000DDE74F4A136801218B43136000F038FBB7
:100BE00005004B4B1B689B07D1D500F031FB401B28
:100BF0000228F6D903205AE1454A536A01218B4362
:100C0000536200F025FB0500414B5B6A9B0706D54C
:100C100000F01EFB401B0228F6D9032047E12368A1
:100C20005B0700D480E03A4BDB69DB001DD4384B16
:100C3000DA69802149050A43DA61DB690B400193D7
:100C4000019B0125354B1B68DB0510D5A368012BE3
:100C500021D0002B36D12E4B1A6A01218A431A6209
:100C60001A6A03318A431A621AE00025EAE72B4A1E
:100C7000116880235B000B43136000F0E9FA060063
:100C8000264B1B68DB05E1D400F0E2FA801B6428E8
:100C9000F6D903200BE11E4A136A01210B431362AC
:100CA000A368002B24D000F0D3FA0600184B1B6A6F
:100CB0009B0737D400F0CCFA801B194B9842F5D92A
:100CC0000320F4E0052B09D0114B1A6A01218A4355
:100CD0001A621A6A03318A431A62E1E70C4B1A6AF4
:100CE00004210A431A621A6A03390A431A62D7E7CF
:100CF00000F0AEFA0600064B1B6A9B0712D500F007
:100D0000A7FA801B064B9842F5D90320CFE0C046D6
:100D100000100240FFFFFEFFFFFFFBFF00700040DE
:100D200088130000012D33D02368DB0610D56369DA
:100D3000012B33D0053351D1654A536B04218B43CA
:100D40005363536BF4318B43A169C9000B43536365
:100D5000236A002B00D1B0E05D4A51680C220A40A2
:100D6000082A00D18AE0022B4FD0594A136859490A
:100D70000B40136000F06CFA0400554B1B689B019C
:100D80007AD500F065FA001B0228F6D903208EE020
:100D90004F4AD36950490B40D361C5E74C4B5A6B5E
:100DA00004210A435A635A6B03390A435A6300F019
:100DB0004FFA0500464B5B6B9B0706D400F048FAE0
:100DC000401B0228F6D9032071E041494B6BF82201
:100DD0009343A269D20013434B63B9E73C4B5A6B70
:100DE00004210A435A635A6B03398A435A6300F059
:100DF0002FFA0500364B5B6B9B07A9D500F028FA4C
:100E0000401B0228F6D9032051E0314A13683149CA
:100E10000B40136000F01CFA05002D4B1B689B0172
:100E200006D500F015FA401B0228F6D903203EE053
:100E3000274BDA6A0F218A43E16A0A43DA625A6869
:100E400026490A40A16A606A01430A435A60196848
:100E5000802252040A431A6000F0FAF904001C4B85
:100E60001B689B0106D400F0F3F9001B0228F6D999
:100E700003201CE000201AE0002018E0012B1ED007
:100E8000134B5A68D86A80235B021340616A8B4215
:100E900017D10F230340E16A8B4214D1F0239B0347
:100EA0001A40A36A9A4210D1002000E0012002B04B
:100EB00070BD0120FBE70120F9E70020F7E70120E2
:100EC000F5E70120F3E70120F1E70120EFE7C04655
:100ED00000100240FFFFFFFEFFFFFFEFFFFFC2FF1A
:100EE00010B5104B5A680C231340082B01D00E4844
:100EF00010BD910C073319400C48445C0949C96A7C
:100F00000B400B49C95CD20304D50748FFF7D8F85A
:100F10006043EDE76201121B93019B1ADB001B1972
:100F20001802E5E70010024000127A00841F000852
:100F3000741F000870B504000D00002800D17EE089
:100F4000434B1A68012313408B420AD240490B6875
:100F5000012293432B430B600B681A40AA4200D036
:100F60006FE023689A070ED55B0705D5394A5168AB
:100F7000E023DB000B435360364A5368F0218B4378
:100F8000A1680B4353602368DB072DD56368012BF1
:100F90001ED0022B22D02F4A1268920753D52D491A
:100FA0004A680320824313434B6000F051F9060066
:100FB000284B5B680C221A4063689B009A4213D04E
:100FC00000F046F9801B244B9842F1D9032035E00C
:100FD000204A12689203E2D401202FE01D4A1268D1
:100FE0009201DCD4012029E0194B1A680123134037
:100FF000AB4209D916490B68012293432B430B607E
:101000000B681A40AA4220D123685B0706D5114A13
:10101000536812490B40E1680B435360FFF760FFD0
:101020000C4B5A6812090F2313400D4AD35CD84069
:101030000C4B1860002000F0C7F8002070BD0120A4
:10104000FCE70120FAE70120F8E70120F6E7C046B7
:10105000002002400010024088130000FFF8FFFF4C
:101060009C1F000808000020014B18687047C0460C
:101070000800002010B5FFF7F7FF044B5A68120A6A
:1010800007231340024AD35CD84010BD0010024031
:10109000941F000870B582B004000368DB0339D5E3
:1010A000434BDB69DB0055D4414BDA6980214905AC
:1010B0000A43DA61DB690B400193019B01253D4B3B
:1010C0001B68DB0548D53A4B1A6AC0239B00110008
:1010D00019401A4215D06368C022920013408B4217
:1010E0000FD0334B1A6A344911401E6A80204002E7
:1010F00030431862186A314E304018621962D207C4
:101100003ED42B4A136A2C490B4061680B4313628F
:10111000012D44D02368DB0706D5254A136B032134
:101120008B43A1680B43136323689B0606D5204AB3
:10113000136B10218B43E1680B43136323685B053A
:1011400032D51B4A136B40218B4321690B43136338
:1011500000202AE00025B2E7164A116880235B00D0
:101160000B43136000F074F80600124B1B68DB059C
:10117000A9D400F06DF8801B6428F6D9032014E090
:1011800000F066F806000A4B1B6A9B07B9D400F012
:101190005FF8801B0A4B9842F5D9032005E0D3691C
:1011A00008490B40D361B5E7002002B070BDC046CE
:1011B0000010024000700040FFFCFFFFFFFFFEFF39
:1011C00088130000FFFFFFEF10B504000F4B1978E4
:1011D000FA208000FEF774FF01000D4B1868FEF73F
:1011E0006FFF00F067F900280DD1032C01D9012011
:1011F0000AE0013000222100404200F057F9054B7F
:101200001C60002000E0012010BDC046000000204E
:10121000080000200400002010B5064A13681021C1
:101220000B4313600020FFF7CFFFFFF739F90020D1
:1012300010BDC04600200240034A1168034B1B78D2
:101240005B1813607047C0460C01002000000020AE
:10125000014B18687047C0460C01002070B50400AF
:10126000FFF7F6FF0500631C02D0044B1B78E4185F
:10127000FFF7EEFF401BA042FAD370BD0000002034
:10128000F0B583B0002356E086685F000324BC40BD
:10129000A643CC68BC4034438460446894434E68A1
:1012A0003609012232409A402243426053E0DE0870
:1012B0000836B600375805321A4092000F24944081
:1012C000A7430C69944022003A43325056E003266B
:1012D00000E00026A64034003C4302329200444E17
:1012E0009451444A9768EA433E00AE434C68E40296
:1012F00001D53E002E433F4CA660E7683E001640F5
:101300004C68A40201D53E002E433A4CE660676863
:101310003E0016404C68A40301D53E002E43354CD8
:101320006660266832404C68E40301D52A003243E7
:10133000304C226001330C682200DA4056D0012282
:101340009A40250015401442F4D04E6803243440DE
:10135000013C012C98D94C6803222240032A08D072
:10136000C4685E000322B24094438A68B2402243BC
:10137000C2604C6803222240022A98D004685E00B2
:1013800003221700B740BC434F683A40B2402243A3
:1013900002604C68C02292021442CBD0164CA6695F
:1013A00001221643A661A46922400192019A9A087B
:1013B000941CA4000E4EA75903241C40A4000F2621
:1013C000A640B7439026F605B04282D00B4EB042FD
:1013D00008D00B4EB04207D00A4EB04200D176E79B
:1013E000052677E7012675E7022673E703B0F0BD0F
:1013F00000000140000401400010024000040048C9
:1014000000080048000C0048002A01D081617047A4
:101410008162FCE770B5002811DB8308134DC033EF
:101420009B005C5903221040C000FC32160086402D
:10143000B44389010A40824022435A5170BD0F23B0
:101440000340083B9B0806339B00094A94466344CB
:101450005C6803221040C000FC3215008540AC439C
:1014600089010A40824022435A60E7E700E100E038
:1014700000ED00E0013880235B0498420FD2094A56
:1014800050600948036A1B021B0AC02109060B436E
:10149000036200239360073313600020704701202C
:1014A000FCE7C04610E000E000ED00E010B5FFF7FB
:1014B000B1FF10BD10B5FFF7DDFF10BD7047000094
:1014C0000D488546FFF7FAFF0C480D490D4A0023E9
:1014D00002E0D458C4500433C4188C42F9D30A4AE9
:1014E0000A4C002301E013600432A242FBD300F057
:1014F00043F9FEF7FDFEFEE700200020000000207B
:1015000068000020B41F000868000020600200206E
:10151000FEE70000002310B5040003604360836011
:1015200081814366C281036143618361190008229E
:101530005C3000F013F90B4B246263620A4BA36228
:101540000A4BE3620A4B23630A4B9C4205D00A4BC9
:101550009C4202D0094B9C4203D12000583000F03D
:101560002FF910BD911A0008B91A0008F11A0008E5
:101570001D1B00081001002078010020E001002060
:1015800010B5034A0349044800F06CF810BDC0468A
:101590000C000020191A00081C00002041680B4BA9
:1015A00010B50400994201D000F036FAA168084B4A
:1015B000994202D0200000F02FFAE168054B9942D1
:1015C00002D0200000F028FA10BDC0461001002013
:1015D00078010020E001002010B5094B094A0421E0
:1015E0001A6009480022FFF795FF012209210748E8
:1015F000FFF790FF022212210548FFF78BFF10BD75
:101600004802002081150008100100207801002008
:10161000E001002010B5024800F0D3F810BDC0462C
:101620004D02002010B5024800F0CCF810BDC046B5
:101630004D02002010B50400FFF7ECFF236A002BD9
:1016400002D0FFF7EFFF10BD044B2362044B1B6871
:10165000002BF6D1FFF7C0FFF3E7C0469D15000849
:1016600048020020F7B51400002600900191A568FB
:101670006768013F04D52468002CF8D13000FEBD16
:10168000AB89012B08D90E22AB5E013304D02900AF
:101690000098019B984706436835EAE7036A70B5EE
:1016A00005000E008468002B01D1FFF7C3FF636EB5
:1016B000DB0705D4A3899B0502D4A06D00F081F857
:1016C000A3891B0702D52369002B1FD12100280005
:1016D00000F06CFA002819D001256D42636EDB071B
:1016E00005D4A3899B0502D4A06D00F06BF82800F7
:1016F00070BD0136A360002B04DAA2699A4216DCA1
:101700000A2914D023685A1C22601970A368317802
:10171000013B0029EDD1A360002B0FDA2200280045
:101720000A3100F001FA0130D6D00A25D6E72200AE
:10173000280000F0F9F90130E8D1CDE723685A1C00
:1017400022600A221A70F0E710B5034B01001868F6
:10175000FFF7A4FF10BDC046180000200300821848
:10176000934200D1704719700133F9E7014B1868B3
:101770007047C0461800002070B500260C4C0D4D77
:10178000641BA410A64209D1002600F0DDFB0A4C20
:101790000A4D641BA410A64205D170BDB300EB58DE
:1017A00098470136EEE7B300EB5898470136F2E769
:1017B000AC1F0008AC1F0008B01F0008AC1F0008D9
:1017C000704770477047000070B50F4E0D003168CC
:1017D0000400002902D100F011FB30602900200034
:1017E00000F00CFB431C03D101256D42280070BDA5
:1017F0000323C51C9D43A842F8D0291A200000F0FD
:10180000FDFA0130F2D1EFE750020020F7B50322D4
:10181000CB1C9343083305001F000C2B34D20C273C
:10182000B94233D8280000F023F9374E33681C0042
:10183000002C2FD139002800FFF7C6FF0400431CFD
:101840005FD134680094009B002B4AD1002C52D009
:1018500023682800E3180099019300F0CFFA019B58
:10186000834248D123682800FF1A3900FFF7ACFFF4
:10187000013040D02368DB19236033685A68002A9E
:1018800033D1009B336019E0002BC9DA0C232B60A5
:101890000020FEBD2168C91B20D40B290AD9E219FA
:1018A0002760A34204D1326063681160536005E091
:1018B0005A60F9E76268A3420ED13260280000F056
:1018C000DFF8200007220B30231D9043C21A9842F4
:1018D000DFD01B1AA350DCE75A60EFE723006468EF
:1018E000A6E7009C63680093ADE71A005B68A3421B
:1018F000FBD10023DAE70C2328002B6000F0C0F8AE
:10190000C6E70760DAE7C04654020020F7B50C22AC
:101910008B5E05000C001A0756D44A68002A02DCC8
:101920000A6C002A4EDDE76A002F4BD0002280208F
:101930002E682A601A004001216A0240034233D017
:10194000626DA3895B0706D56368D21A636B002BAF
:1019500001D0236CD21A00232800E76A216AB84715
:10196000A289431C06D129681D2946D8294BCB40A2
:10197000DB0742D50023636023692360D20405D5C9
:10198000431C02D12B68002B00D16065616B2E6077
:10199000002917D023004433994202D0280000F0D8
:1019A00053FA002363630DE001232800B8470200C7
:1019B000431CC6D12B68002BC3D01D2B01D0162B86
:1019C0001AD12E6000201EE00E69002EFAD00F689A
:1019D0000E60BA1B019200229B0700D14A69A260E7
:1019E000019B002BEEDDA36A32001F002800019B43
:1019F000216AB847002807DCA2894023012013434D
:101A00001BB2A3814042FEBD019B36181B1A0193F5
:101A1000E6E7C046010040200B6970B505000C00E8
:101A2000002B02D10025280070BD002804D0036AD5
:101A3000002B01D1FFF7FEFD0C22A35E002BF1D09D
:101A4000626ED20704D49B0502D4A06DFFF7B9FEE5
:101A500028002100FFF75AFF636E0500DB07E2D480
:101A6000A3899B05DFD4A06DFFF7ACFEDBE7000088
:101A700010B50248FFF7A5FE10BDC0464C0200207D
:101A800010B50248FFF79EFE10BDC0464C02002074
:101A900070B50C000E25495F00F09CF9002803DBAF
:101AA000636D1B18636570BDA389024A1340A3814F
:101AB000F9E7C046FFEFFFFFF8B51F008B8905006F
:101AC0000C001600DB0505D50E23C95E002202239B
:101AD00000F06CF9A389054A28001340A381320065
:101AE0000E23E15E3B0000F09BF9F8BDFFEFFFFF26
:101AF00070B50C000E25495F00F058F9A389421C0F
:101B000003D1054A1340A38170BD802252011343C3
:101B1000A3816065F8E7C046FFEFFFFF10B50E2315
:101B2000C95E00F00DF910BDF8B506000D001400F7
:101B3000002804D0036A002B01D1FFF77BFDA369C5
:101B4000A360A3891B0702D52369002B09D12100BB
:101B5000300000F02BF8002803D001256D4228004A
:101B6000F8BD23692068EFB2C01A6369EDB2834201
:101B700005DC21003000FFF74FFF0028EDD1A368FE
:101B80000130013BA36023685A1C22601F70636907
:101B9000834204D0A389DB07E1D50A2DDFD12100E0
:101BA0003000FFF739FF0028D9D0D6E72D4B70B5AC
:101BB000050018680C00002804D0036A002B01D12E
:101BC000FFF738FD0C22A35E1A0723D4DA0607D4E8
:101BD00009222A60402201201343A38140423AE0B7
:101BE0005B0713D5616B002908D023004433994269
:101BF00002D0280000F028F9002363632422A3897F
:101C00009343A38100236360236923600823A2898F
:101C10001343A3812369002B0BD1A0218022A38928
:101C2000890092000B40934203D02100280000F06D
:101C300045F80C22A35E01211A000A400B420BD08A
:101C40000022A26062695242A2610020226982429F
:101C500001D11A06BED470BD990700D46269A26092
:101C6000F3E7C0461800002070B50E001D000E23DB
:101C7000C95E140096B000290CDAB28980231100E5
:101C800019401A4214D18023DB0000202960236010
:101C900016B070BD6A4600F065F80028EDDBF02351
:101CA00001991B021940044BC9184B425941EAE7FC
:101CB00000214023E9E7C04600E0FFFFF0B502261F
:101CC0008B8905000C0085B0334207D023004733D1
:101CD000236023610123636105B0F0BD03AB02AA59
:101CE000FFF7C2FF029F019039002800FFF78EFD29
:101CF000002808D10C22A35E9A05EDD40322934359
:101D00001E43A681E2E78023A28920601343A381BA
:101D1000039B20616761002B0CD028000E23E15E3D
:101D200000F032F8002805D00323A2899A43023B31
:101D30001343A381A389019A1343A381CCE7000035
:101D4000002370B5064D040008002B6000F0C6F8B3
:101D5000431C03D12B68002B00D0236070BDC0460C
:101D600058020020002370B5064D04000800110041
:101D70002B6000F0BBF8431C03D12B68002B00D074
:101D8000236070BD58020020002370B5064D04008A
:101D900008002B6000F0B2F8431C03D12B68002B25
:101DA00000D0236070BDC0465802002070B504000A
:101DB000080011001A000023054D2B6000F0A6F862
:101DC000431C03D12B68002B00D0236070BDC0469C
:101DD0005802002070B50400080011001A0000230A
:101DE000054D2B6000F09AF8431C03D12B68002BA3
:101DF00000D0236070BDC04658020020002370B59B
:101E0000064D040008002B6000F090F8431C03D13D
:101E10002B68002B00D0236070BDC0465802002004
:101E200070B50400080011001A000023054D2B6056
:101E3000FEF718FB431C03D12B68002B00D0236056
:101E400070BDC0465802002070B505000C1E10D0B1
:101E5000043C2368002B00DAE4182800FFF708FE92
:101E60001D4A1368002B05D1636014602800FFF73A
:101E700007FE70BDA34208D9206821188B42F3D118
:101E800019685B6809182160EEE71A005B68002B8F
:101E900001D0A342F9D911685018A0420BD1206893
:101EA0000918501811608342E0D118685B68411826
:101EB00011605360DAE7A04202D90C232B60D5E70A
:101EC000206821188B4203D119685B6809182160CA
:101ED00063605460CAE7C0465402002058220120C3
:101EE000014B40421A6070475802002058220120DE
:101EF000014B40421A607047580200205822024BA2
:101F000000201A607047C046580200205822012065
:101F1000014B40421A6070475802002058220120AD
:101F2000014B40421A60704758020020044A0300E7
:101F30001068002802D0C318136070470148FAE700
:101F40005C02002060020020F8B5C046F8BC08BC66
:101F50009E467047F8B5C046F8BC08BC9E46704720
:101F60004C4544206F6E0D004C4544206F66660D55
:101F7000000000000102030405060708090A0B0C13
:101F80000D0E0F1002030405060708090A0B0C0DBD
:101F90000E0F1010000000000102030400000000FA
:0C1FA0000000000001020304060708090D
:041FAC004D020008DA
:041FB0002102000802
:101FB400010000000400000000127A00000000008C
:101FC40003000000100100201C000020000000009D
:101FD4001001002078010020E00100200000000032
:101FE40000000000000000000000000000000000ED
:101FF40000000000000000000000000000000000DD
:1020040000000000000000000000000000000000CC
:082014000000000000000000C4
:04000005080014C11A
:00000001FF
